{
  "contractName": "Airdropper",
  "abi": [
    {
      "inputs": [],
      "name": "data",
      "outputs": [
        {
          "internalType": "bytes",
          "name": "",
          "type": "bytes"
        }
      ],
      "stateMutability": "view",
      "type": "function",
      "constant": true
    },
    {
      "inputs": [
        {
          "internalType": "address",
          "name": "tokenAddr",
          "type": "address"
        },
        {
          "internalType": "address[]",
          "name": "toAddr",
          "type": "address[]"
        },
        {
          "internalType": "uint256[]",
          "name": "value",
          "type": "uint256[]"
        }
      ],
      "name": "batch",
      "outputs": [
        {
          "internalType": "bool",
          "name": "",
          "type": "bool"
        }
      ],
      "stateMutability": "nonpayable",
      "type": "function"
    }
  ],
  "bytecode": "0x608060405234801561001057600080fd5b50610aea806100206000396000f3fe608060405234801561001057600080fd5b50600436106100365760003560e01c80632e7298c21461003b57806373d4a13a1461006b575b600080fd5b6100556004803603810190610050919061041f565b610089565b60405161006291906104cf565b60405180910390f35b61007361026e565b6040516100809190610583565b60405180910390f35b600082829050858590501480156100a4575060018585905010155b6100ad57600080fd5b60005b85859050811015610260576000808873ffffffffffffffffffffffffffffffffffffffff16338989868181106100e9576100e86105a5565b5b90506020020160208101906100fe91906105d4565b888887818110610111576101106105a5565b5b9050602002013560405160240161012a93929190610629565b6040516020818303038152906040527f23b872dd000000000000000000000000000000000000000000000000000000007bffffffffffffffffffffffffffffffffffffffffffffffffffffffff19166020820180517bffffffffffffffffffffffffffffffffffffffffffffffffffffffff83818316178352505050506040516101b4919061069c565b6000604051808303816000865af19150503d80600081146101f1576040519150601f19603f3d011682016040523d82523d6000602084013e6101f6565b606091505b50915091508161023b576040517f08c379a000000000000000000000000000000000000000000000000000000000815260040161023290610710565b60405180910390fd5b806000908161024a919061096b565b505050808061025890610a6c565b9150506100b0565b506001905095945050505050565b6000805461027b9061078e565b80601f01602080910402602001604051908101604052809291908181526020018280546102a79061078e565b80156102f45780601f106102c9576101008083540402835291602001916102f4565b820191906000526020600020905b8154815290600101906020018083116102d757829003601f168201915b505050505081565b600080fd5b600080fd5b600073ffffffffffffffffffffffffffffffffffffffff82169050919050565b600061033182610306565b9050919050565b61034181610326565b811461034c57600080fd5b50565b60008135905061035e81610338565b92915050565b600080fd5b600080fd5b600080fd5b60008083601f84011261038957610388610364565b5b8235905067ffffffffffffffff8111156103a6576103a5610369565b5b6020830191508360208202830111156103c2576103c161036e565b5b9250929050565b60008083601f8401126103df576103de610364565b5b8235905067ffffffffffffffff8111156103fc576103fb610369565b5b6020830191508360208202830111156104185761041761036e565b5b9250929050565b60008060008060006060868803121561043b5761043a6102fc565b5b60006104498882890161034f565b955050602086013567ffffffffffffffff81111561046a57610469610301565b5b61047688828901610373565b9450945050604086013567ffffffffffffffff81111561049957610498610301565b5b6104a5888289016103c9565b92509250509295509295909350565b60008115159050919050565b6104c9816104b4565b82525050565b60006020820190506104e460008301846104c0565b92915050565b600081519050919050565b600082825260208201905092915050565b60005b83811015610524578082015181840152602081019050610509565b83811115610533576000848401525b50505050565b6000601f19601f8301169050919050565b6000610555826104ea565b61055f81856104f5565b935061056f818560208601610506565b61057881610539565b840191505092915050565b6000602082019050818103600083015261059d818461054a565b905092915050565b7f4e487b7100000000000000000000000000000000000000000000000000000000600052603260045260246000fd5b6000602082840312156105ea576105e96102fc565b5b60006105f88482850161034f565b91505092915050565b61060a81610326565b82525050565b6000819050919050565b61062381610610565b82525050565b600060608201905061063e6000830186610601565b61064b6020830185610601565b610658604083018461061a565b949350505050565b600081905092915050565b6000610676826104ea565b6106808185610660565b9350610690818560208601610506565b80840191505092915050565b60006106a8828461066b565b915081905092915050565b600082825260208201905092915050565b7f63616c6c2066616c6c6564000000000000000000000000000000000000000000600082015250565b60006106fa600b836106b3565b9150610705826106c4565b602082019050919050565b60006020820190508181036000830152610729816106ed565b9050919050565b7f4e487b7100000000000000000000000000000000000000000000000000000000600052604160045260246000fd5b7f4e487b7100000000000000000000000000000000000000000000000000000000600052602260045260246000fd5b600060028204905060018216806107a657607f821691505b6020821081036107b9576107b861075f565b5b50919050565b60008190508160005260206000209050919050565b60006020601f8301049050919050565b600082821b905092915050565b6000600883026108217fffffffffffffffffffffffffffffffffffffffffffffffffffffffffffffffff826107e4565b61082b86836107e4565b95508019841693508086168417925050509392505050565b6000819050919050565b600061086861086361085e84610610565b610843565b610610565b9050919050565b6000819050919050565b6108828361084d565b61089661088e8261086f565b8484546107f1565b825550505050565b600090565b6108ab61089e565b6108b6818484610879565b505050565b5b818110156108da576108cf6000826108a3565b6001810190506108bc565b5050565b601f82111561091f576108f0816107bf565b6108f9846107d4565b81016020851015610908578190505b61091c610914856107d4565b8301826108bb565b50505b505050565b600082821c905092915050565b600061094260001984600802610924565b1980831691505092915050565b600061095b8383610931565b9150826002028217905092915050565b610974826104ea565b67ffffffffffffffff81111561098d5761098c610730565b5b610997825461078e565b6109a28282856108de565b600060209050601f8311600181146109d557600084156109c3578287015190505b6109cd858261094f565b865550610a35565b601f1984166109e3866107bf565b60005b82811015610a0b578489015182556001820191506020850194506020810190506109e6565b86831015610a285784890151610a24601f891682610931565b8355505b6001600288020188555050505b505050505050565b7f4e487b7100000000000000000000000000000000000000000000000000000000600052601160045260246000fd5b6000610a7782610610565b91507fffffffffffffffffffffffffffffffffffffffffffffffffffffffffffffffff8203610aa957610aa8610a3d565b5b60018201905091905056fea26469706673582212204883a9c79b3ebe8588456e618fba4440cb7b3e37685672afbd57e2e8c9ddf6d364736f6c634300080f0033",
  "immutableReferences": {},
  "source": "// SPDX-License-Identifier: MIT\r\npragma solidity ^0.8.15;\r\n\r\ncontract Airdropper {\r\n    bytes public data;\r\n\r\n    function batch(address tokenAddr, address[] calldata toAddr, uint256 [] calldata value) public returns (bool){\r\n        \r\n        require(toAddr.length == value.length && toAddr.length >= 1);\r\n        \r\n        for(uint256 i = 0 ; i < toAddr.length; i++){\r\n    \r\n            (bool success, bytes memory _data) = tokenAddr.call(\r\n                abi.encodeWithSignature(\"transferFrom(address,address,uint256)\",  msg.sender, toAddr[i], value[i])\r\n            );\r\n            require(success, \"call falled\");\r\n            data = _data;\r\n        }\r\n        return true;\r\n    }\r\n}\r\n",
  "sourcePath": "E:\\testRoot\\truffle-verify-deploy\\contracts\\Airdropper.sol",
  "compiler": {
    "name": "solc",
    "version": "0.8.15+commit.e14f2714.Emscripten.clang"
  },
  "schemaVersion": "3.4.4",
  "updatedAt": "2022-06-22T03:08:08.220Z",
  "networkType": "ethereum",
  "devdoc": {
    "kind": "dev",
    "methods": {},
    "version": 1
  },
  "userdoc": {
    "kind": "user",
    "methods": {},
    "version": 1
  }
}